:020000040000FA
:10000000C095FF1F15020000270200002902000012
:1000100000000000000000000000000000000000E0
:10002000000000000000000000000000E1030000EC
:1000300000000000000000009B010000110600000D
:100040003102000035020000390200003D020000CC
:100050005502000055020000550200005502000044
:100060004102000045020000490200005502000064
:100070004D0200005502000055020000550200002C
:100080005502000055020000550200005502000014
:100090005502000055020000550200005502000004
:1000A00055020000550200005502000055020000F4
:1000B00055020000510200005502000055020000E8
:1000C00000F002F800F03EF80CA030C80838241800
:1000D0002D18A246671EAB4654465D46AC4201D180
:1000E00000F030F87E460F3E0FCCB6460126334274
:1000F00000D0FB1AA246AB4633431847041F00004A
:10010000241F0000103A02D378C878C1FAD85207E9
:1001100001D330C830C101D504680C6070470000BD
:100120000023002400250026103A01D378C1FBD813
:10013000520700D330C100D50B6070471FB51FBDFB
:1001400010B510BD00F0F4F81146FFF7F7FF00F00E
:100150007FFA00F00CF903B4FFF7F2FF03BC00F0E4
:1001600013F90000084B19680868203080F30988EB
:10017000022080F31488BFF36F8F3FBCAE4608BCEB
:1001800004BC62B6184700002080FF1FEFF3108008
:1001900072B6704780F310887047EFF309800E4BFA
:1001A0001A6820381060F0C044464D4656465F46F7
:1001B000F0C008B572B601F0DDF962B60CBC11688A
:1001C00008681030F0C8A046A946B246BB4680F386
:1001D00009882038F0C818472080FF1F70B50546F1
:1001E0000C46164602E00FCC0FC5103E102EFAD278
:1001F000082E02D303CC03C5083E042E07D301CC3E
:1002000001C5361F03E021782970641C6D1C761E21
:10021000F9D270BD72B61348134901601348804784
:1002200062B613480047FEE7FEE7FEE7FEE7FEE79B
:100230001048004710480047104800471048004742
:100240001048004710480047104800471048004732
:100250001048004710480047104811490F4A114BF9
:100260007047000008ED00E000000000E50300001A
:10027000C1000000550200005502000055020000B8
:100280005502000055020000550200005502000012
:10029000550200005502000055020000C091FF1FEA
:1002A000C095FF1FC091FF1FF8B5042A2CD3830708
:1002B00012D00B78491C0370401C521E83070BD0D0
:1002C0000B78491C0370401C521E830704D00B7826
:1002D000491C0370401C521E8B079B0F05D0C91A86
:1002E000DF002023DE1B08C90AE0FFF777FFF8BD17
:1002F0001D4608C9FD401C46B4402C4310C0121FC7
:10030000042AF5D2F308C91A521EF0D40B78491CFE
:100310000370401C521EEAD40B78491C0370401C29
:10032000012AE4D409780170F8BD7047704770471E
:10033000754600F025F8AE46050069465346C008EC
:10034000C000854618B020B5FFF786FF60BC0027C7
:100350004908B6460026C0C5C0C5C0C5C0C5C0C591
:10036000C0C5C0C5C0C5403D49008D46704710B5E9
:100370000446C046C0462046FFF7EDFE10BD000013
:10038000004870476091FF1F01491820ABBEFEE78F
:1003900026000200704700000146042908D28800A8
:1003A000044A125C012090408A00034B9A58506026
:1003B00000207047D01F0000F01F000001460429F4
:1003C00008D28800044A125C012090408A00034B46
:1003D0009A58906000207047D01F0000F01F000066
:1003E0007047000000200149086070470081044008
:1003F00000210161704700000000000000000000C3
:10040000FFFFFFFFFFFFFFFFFFFFFFFFFEFFFFFFFD
:10041000002203098B422CD3030A8B4211D3002301
:100420009C464EE003460B433CD4002243088B42DB
:1004300031D303098B421CD3030A8B4201D3944668
:100440003FE0C3098B4201D3CB01C01A524183095B
:100450008B4201D38B01C01A524143098B4201D315
:100460004B01C01A524103098B4201D30B01C01A40
:100470005241C3088B4201D3CB00C01A52418308BA
:100480008B4201D38B00C01A524143088B4201D3E7
:100490004B00C01A5241411A00D201465241104647
:1004A00070475DE0CA0F00D04942031000D34042BC
:1004B000534000229C4603098B422DD3030A8B42F2
:1004C00012D3FC22890112BA030A8B420CD3890190
:1004D00092118B4208D3890192118B4204D3890176
:1004E0003AD0921100E08909C3098B4201D3CB01B4
:1004F000C01A524183098B4201D38B01C01A524169
:1005000043098B4201D34B01C01A524103098B426C
:1005100001D30B01C01A5241C3088B4201D3CB0057
:10052000C01A524183088B4201D38B00C01A52413A
:10053000D9D243088B4201D34B00C01A5241411A11
:1005400000D20146634652415B10104601D340423F
:10055000002B00D54942704763465B1000D34042F0
:1005600001B50020C046C04602BD000010B52448B9
:10057000806B072252021043214A906300211AE047
:10058000FF2001308A001F4B9A588B001E4CE35805
:100590009B00D05088001B4A10588030006A8A00A7
:1005A00023469B5C01229A4010408A00154B9A58C2
:1005B00080321062491C0429E2D300211CE088002B
:1005C000124A105800688A000F4B9B5C01229A4027
:1005D00010438A000D4B9A58106088001A46105834
:1005E00040698A00084B9B5C01229A4010438A00B4
:1005F000064B9A585061491C0429E0D3002010BDD5
:1006000000800440E01F0000D01F0000F01F000029
:1006100010B5FFF7BBFD044601F0DCFA002803D05B
:1006200001200007024948602046FFF7B3FD10BDD6
:1006300000ED00E030B47446641E2578641CAB42C3
:1006400004D3635D5B00E31830BC18471D46F8E730
:100650001CB5FFF78BFF0020012103468222009189
:10066000019009A10A4801F06FFA00200221034617
:1006700082220091019007A1084801F065FA00F07C
:1006800035FF00BFFEE70000466C61736831000073
:1006900037090000466C617368320000570900009A
:1006A000F8B505460E461748076817480068001D4C
:1006B00000F092FD681C002808D1002E06D01248D8
:1006C0000168091D114800F0C3FD1AE07C190E48AD
:1006D00000684460BC4207D20B480168091D0C4801
:1006E000006800F09AFD0CE007480168091D094800
:1006F000006800F092FD08480068844201D2064874
:100700000460F8BD3480FF1F2080FF1F2491FF1F6D
:100710002880FF1F2480FF1F5080FF1F10B5044654
:1007200000F0A2FD20480068401C1F4908601F48D7
:100730000068002808D11D480460084600680128A8
:100740000ED100F0DFF90BE019480068002807D14E
:1007500016480068C06AE16A884201D813480460FC
:1007600014480068401C134908601349E06A09688E
:10077000884202D91049E06A08601422E16A5143B4
:100780000E4A8818211D00F063FD00F07BFD08482B
:100790000068002807D005480068C06AE16A8842FE
:1007A00001D200F0C3FD10BD3080FF1F2080FF1F6D
:1007B0003C80FF1F4C80FF1F3880FF1F7090FF1F81
:1007C00010B500F051FD0D480068002812D10C480A
:1007D00000F016FD0B4800F013FD09480A490860B7
:1007E00008480A49086000220C21052000F01EFF7D
:1007F0000249086000F046FD10BD00006480FF1F44
:100800003891FF1F4C91FF1F5C80FF1F6080FF1F0E
:1008100070B525E000F0A6FE14480068002801D15C
:10082000012000E00020054601F0FAFA002D17D162
:1008300000F01AFD0D48C068C468201D00F0CCFC13
:100840000B480068401E0A4908600A480068401EBC
:100850000849086000F016FD204600F063F800BF6C
:10086000044800680028D5D170BD00001091FF1F1A
:100870003080FF1F2C80FF1F70B504460D46206C92
:1008800000280ED0216CE0684018E0606168E068E4
:10089000884201D32068E0602846226CE168FFF7B7
:1008A00003FD70BDF8B504460F46154600200090C4
:1008B000A66B206C002809D1206800282ED1606822
:1008C00001F026FA00900020606027E0002D0FD193
:1008D0003946226CA068FFF7E7FC216CA06840183D
:1008E000A0606168A068884218D32068A06015E005
:1008F0003946226CE068FFF7D7FC216CE068401AAB
:10090000E0602168E068884203D2216C6068401A88
:10091000E060022D02D1002E00D0761E701CA06374
:100920000098F8BD10B50446206B00F0BFFC2046CF
:1009300000F0BCFC10BD0DE07D20C00000F028FDE3
:100940000020FFF73BFD7D20C00000F021FD0020CE
:10095000FFF722FDF0E70DE07D20000100F018FD1B
:100960000320FFF72BFD7D20000100F011FD032087
:10097000FFF712FDF0E700000146094A126812680D
:10098000002A01D1012200E000220A600A68002A40
:1009900004D1034A1268D268106800E00020704752
:1009A0005C80FF1F30B501231B0317484407640F09
:1009B000002C05D0C01DC008C000134C041B1B1B1D
:1009C0000246124C22600024104D6C60D01808388A
:1009D000C008C0000E4C206000240D4D2D686C60D6
:1009E0000B4D2D682C601146441A4C60084C24684D
:1009F0000C60084D4C682C60074D4C682C6001243D
:100A0000E407064D2C6030BD7080FF1F0480FF1F7F
:100A10000C80FF1F1480FF1F1080FF1F1880FF1F16
:100A200000BFFFF7F5FE034800680128F9D900F080
:100A30007DFCF6E77090FF1FF8B506460D46174699
:100A4000069C002D01D1246000E02760E663256448
:100A50000121204600F0D8FE0020A064F8BDFFB5BB
:100A600081B00F460A9E0C9C216B0398401E8000AB
:100A7000081800900098C008C00000900098400737
:100A8000400F002801D1012000E00020002802D101
:100A900072B600BFFEE7002508E0795D20463430DD
:100AA0004155785D002800D102E06D1C0A2DF4D379
:100AB00000BF00213D200155052E00D30426E6622B
:100AC000266400206064201DFFF792FC2046183049
:100AD000FFF78EFC24610520801BA061646200206A
:100AE000A06400214C200155049A0199009800F05F
:100AF00063FB20600B98002801D00B98046005B0C0
:100B0000F0BD000010B5002406E0142161430E4A38
:100B1000881800F075FB641C052CF6D30B4800F018
:100B20006FFB0B4800F06CFB0A4800F069FB0A48B9
:100B300000F066FB094800F063FB044808490860C0
:100B400003480849086010BD7090FF1FD490FF1F34
:100B5000E890FF1FFC90FF1F1091FF1F2491FF1FC3
:100B60002480FF1F2880FF1F10B50146164800E0B3
:100B7000006803688B42FBD3024643689B188B4294
:100B800004D143684C681B19436001460A464B6810
:100B90009B180468A34211D10C4C03682468A3423B
:100BA00008D04B68046864681B194B6003681B68B5
:100BB0000B6005E0054B1B680B6001E003680B60F0
:100BC000884200D0016010BD0480FF1F0C80FF1F11
:100BD000F8B504460D4616461F4600200090656095
:100BE0002461B5420CD8F01BA169884202D30120D0
:100BF000009011E0211D0948006800F00EFB0BE099
:100C0000BE4204D2BD4202D30120009004E0211D67
:100C10000348006800F001FB0098F8BD6080FF1FEA
:100C20005C80FF1F70B5054600F01EFBA86B002816
:100C300001D1012400E0002400F024FB204670BD17
:100C400070B5054600F010FBA86BE96B884201D136
:100C5000012400E0002400F015FB204670BDF3B530
:100C600081B00D460198846C0027002C02D172B629
:100C700000BFFEE7A06BE16B884201D2012000E0DB
:100C80000020002802D172B600BFFEE7A06BE16B26
:100C900088421FD2452006572A4601A92046FFF761
:100CA00001FE0746701C00280FD1606A002801D1A0
:100CB000012000E0002000280BD12046243001F064
:100CC0006BF8002805D0012703E0701C41B24520D5
:100CD000015500BF3846FEBDF8B505460F4613481E
:100CE0000068C068C468201D00F076FAE069012839
:100CF00017D1A06941192B463A462046FFF768FFF5
:100D000000280ED0002003462A46014600902046C7
:100D100001F024F90646002E02D172B600BFFEE7AC
:100D200000BF2046616A8847F8BD00005C80FF1F55
:100D300070B586B060E0039800285DDB059C6069B3
:100D4000002801D1012000E00020002802D1201D50
:100D500000F042FA02A800F0AFF80546039803003D
:100D6000FFF768FC0A0A06082C2E4407092D2F48B5
:100D700000BF00BF00BF00BF0498A26981180346EE
:100D80002A462046FFF724FF002816D02046616A35
:100D90008847E069012810D1002000900498A169DB
:100DA000421800231946204601F0D8F80646002EC6
:100DB00002D172B600BFFEE700BF1CE000BF1AE020
:100DC00000BF0498A061A069002801D0012000E0C4
:100DD0000020002802D172B600BFFEE7A0694119C9
:100DE0002B462A462046FFF7F3FE04E0204600F09B
:100DF0005DFA00E000BF00BF00231A4603A90448C3
:100E0000006800F03BFC002895D106B070BD0000E2
:100E10006480FF1FF8B505460C4600F0A3FB68464A
:100E200000F04AF806460098002822D1002C08D18C
:100E3000B54206D800F0F4FF31462846FFF74CFFD4
:100E400019E0002C08D00C4800680068002801D187
:100E5000012000E000200446A91B22460748006844
:100E600000F070FA00F0DCFF002804D100F05EFA18
:100E700001E000F0D5FFF8BD6080FF1F6480FF1F18
:100E80000B4909680968002901D1012100E000210E
:100E9000002904D00021C943064A116006E0044934
:100EA0000968C968C868034A416811607047000052
:100EB0002480FF1F5080FF1F70B5044600F084FEA1
:100EC000054607480068854204D200F01DF801205D
:100ED000206001E00020206001480560284670BDC8
:100EE0006C80FF1F10B57D21C90005480068FFF721
:100EF0008FFA401E034948610720086110BD0000B9
:100F00000080FF1F00E000E0FEB52BE020480068F5
:100F1000C06805681E480068C068C468201D00F0ED
:100F20005BF92046616A8847E06901281AD1A06907
:100F30004619AE4207D966602461211D1448006835
:100F400000F06BF90EE0002003462A4601460090AF
:100F5000204601F003F80746002F02D172B600BF09
:100F6000FEE700BF0A4800680068002801D10120A0
:100F700000E000200028C9D005480068019005481D
:100F8000006803490860034901980860FEBD00003D
:100F90005C80FF1F6080FF1F07480068401C00281E
:100FA00001D1012000E00020002802D172B600BF6C
:100FB000FEE772B600BFFEE71C80FF1F08B500BF4A
:100FC0006846FFF7D9FC044620460099FFF722FF48
:100FD000FFF7AEFEF4E770B5044600F045F9452092
:100FE00005571FE0A06C002808D000212046FFF71D
:100FF00036FE002814D000F0EDF911E0606A0028F8
:1010000001D1012000E00020002808D12046243032
:1010100000F0C2FE002803D000F0DCF900E003E09D
:10102000681E45B2002DDDDC00BF0021C94345200C
:10103000015500F027F900F017F94420055713E097
:101040002069002801D1012000E0002000280AD1F9
:101050002046103000F0A0FE002801D000F0BAF9C0
:10106000681E45B200E001E0002DE9DC00BF002170
:10107000C9434420015500F005F970BDF8B5044698
:101080000020009000F06EFA3E480068002801D170
:10109000FFF788FC3C4800682040002861D1002C04
:1010A00015D008346007400F002810D06007400FAB
:1010B0000821081A04196007400F002801D10120F7
:1010C00000E00020002802D172B600BFFEE7002C2D
:1010D00047D02E480068844243D82D4E30460568DC
:1010E00001E02E462D686868A04202D228680028D8
:1010F000F7D124480068854233D03068083000902A
:10110000286830606868001B102813D92F197807E9
:10111000400F002801D1012000E00020002802D16A
:1011200072B600BFFEE76868001B78606C603846E6
:10113000FFF71AFD154968680968081A134908601D
:101140000846006813490968884203D20F480068BE
:10115000104908600C496868096808436860002005
:10116000286000F05DFE00984007400F002801D184
:10117000012000E00020002802D172B600BFFEE787
:101180000098F8BD0C80FF1F1880FF1F1080FF1F04
:101190000480FF1F1480FF1F06480068002806D047
:1011A0000449096808464430496C491C01600148FB
:1011B000006870472080FF1F001F01231B0603608B
:1011C000001F0160001F034B0360143802602038C9
:1011D00070470000990F000001460A694B68886853
:1011E00098608B68486858605068884201D1886868
:1011F0005060002008611068401E10601068704741
:101200000146083141600021C9438160014608312F
:10121000C160016100210160704710B502460B6892
:101220005C1C002C01D1106907E01046083000E07A
:101230004068446824689C42FAD944684C604C6811
:10124000A160886041600A611468641C146010BD6C
:1012500042684A6093688B60936859609160086146
:1012600003685B1C0360704772B605480068401C49
:1012700003490860BFF34F8FBFF36F8F70470000C3
:101280001C80FF1F08480068002802D172B600BF0A
:10129000FEE705480068401E0349086008460068EC
:1012A000002800D162B670471C80FF1F70B506464B
:1012B0003546002E35D0083D2C461A49606809682D
:1012C0000840002801D0012000E00020002802D1C1
:1012D00072B600BFFEE72068002801D1012000E0BF
:1012E0000020002802D172B600BFFEE70D496068F9
:1012F00009680840002814D02068002811D1094945
:10130000606809688843606000F02CF906496068ED
:1013100009684018044908602046FFF725FC00F0E2
:101320007FFD70BD1880FF1F1080FF1F0120000788
:1013300003494860BFF34F8FBFF36F8F70470000C2
:1013400000ED00E0F8B505460E4617462C46FFF7BF
:101350008BFF44210857401C002802D10021442063
:10136000015545210857401C002802D10021452085
:101370000155FFF787FFA06B002805D13A4631469B
:101380002046243000F042F82046FFF724FEF8BD46
:1013900070B504460025002C14D00D4800680028C4
:1013A00001D1012000E00020002802D172B600BF68
:1013B000FEE700F0D7F800212046FFF771F900F0B2
:1013C0002FFD0546002D01D1FFF7B0FF70BD0000D5
:1013D0005880FF1F01200149086070474480FF1FAB
:1013E00070B504460D46002C02D172B600BFFEE770
:1013F0000548016818312046FFF70FFF01212846F4
:10140000FFF74EF970BD00002080FF1F70B5054644
:101410000E461446002D02D172B600BFFEE7074803
:10142000016818312846FFF713FF002C01D0002671
:10143000F64321463046FFF733F970BD2080FF1F89
:1014400070B505462C46002D39D01D49E06A096863
:10145000C96A884233D2A069C00FC007002805D1ED
:1014600017480068C06A0521081AA0611422E06AC2
:101470005043144A80186169814201D1012000E083
:101480000020002817D0201DFFF7A6FE0C4800689A
:10149000C06AE0620C49E06A0968884202D90A49D8
:1014A000E06A08601422E16A5143064A8818211D47
:1014B000FFF7CEFE03E002480068C06AE06270BD3C
:1014C0002080FF1F7090FF1F3880FF1F002802D16F
:1014D00072B600BFFEE70349096801600249096866
:1014E000416070474880FF1F3480FF1F1CB51648BD
:1014F00000210B4682220091019014A1154800F0B2
:1015000023FB0446012C02D100F002FD0446012C0D
:101510000DD172B60020C0430F49086001200F4969
:10152000086000200E49086000F064F80AE0601CC2
:10153000002801D0012000E00020002802D172B66E
:1015400000BFFEE71CBD00005480FF1F49444C450E
:1015500000000000210A00005080FF1F3C80FF1F98
:101560003480FF1F02480068401C01490860704732
:101570005880FF1F1A480068002803D0012019492D
:1015800008602CE00020174908601748016805E052
:10159000002902D172B600BFFEE7491E142048435D
:1015A000124A1058002801D1012000E00020002834
:1015B000EED114224A430D4BD01842685268426063
:1015C000024608324368934202D142685268426040
:1015D0004268D268064B1A600348016000BF70473A
:1015E0005880FF1F4480FF1F3880FF1F7090FF1F2F
:1015F0002080FF1F10B50B48006AFF210904084333
:10160000084908620846006AFF210906084305499F
:101610000862FFF767FC002003490860FEF7A2FD9F
:10162000002010BD00ED00E01C80FF1FF7B582B068
:1016300005460E46002D01D0012000E000200028C4
:1016400002D172B600BFFEE7002E01D1002701E0F3
:101650002F46774338464C30FFF710FD0446002CE8
:1016600009D020464C300190009431462846049B16
:10167000019AFFF7E1F9204605B0F0BDFFB585B04E
:1016800005460E46002004902C46002C02D172B66E
:1016900000BFFEE7002E02D1206C002801D10120FE
:1016A00000E00020002802D172B600BFFEE700F083
:1016B00079FA002802D10798002801D1012000E022
:1016C0000020002802D172B600BFFEE700BFFFF77E
:1016D000CBFDA06B01900198002837D0E768314618
:1016E0002046FFF7C9F80898002819D10198401E34
:1016F000A0632068002802D1FFF74EFD60602069DA
:10170000002801D1012000E00020002819D1204646
:10171000103000F041FB002813D0FFF707FE10E067
:10172000E760606A002801D1012000E00020002865
:1017300007D12046243000F02FFB002801D0FFF70E
:10174000F5FDFFF79FFD012009B0F0BD07980028C7
:1017500003D1FFF797FD0020F6E70498002804D195
:1017600002A8FFF7B3FE01200490FFF78BFDFFF7FF
:10177000F9FEFFF779FD44210857401C002802D1EB
:1017800000214420015545210857401C002802D162
:10179000002145200155FFF775FD07A902A800F0BB
:1017A00099F9002824D12046FFF73CFA002819D0E7
:1017B0002068002806D1FFF757FD6068FFF740FE5C
:1017C000FFF760FD204624300799FFF709FE204609
:1017D000FFF701FC00F024FB002800D077E7FFF7BB
:1017E000A5FD74E72046FFF7F6FB00F019FB6EE756
:1017F0002046FFF7F0FB00F013FB2046FFF712FA3C
:101800000028EBD000209FE770B505460E462C4619
:10181000002C02D172B600BFFEE7FFF725FD216C58
:10182000E06B48432168401860600020A063206896
:10183000A060E06B401E216C484321684018E060C6
:101840000021C9434420015545200155002E10D1E7
:101850002069002801D1012000E00020002810D1DB
:101860002046103000F098FA00280AD0FFF75EFDFD
:1018700007E020461030FFF7C3FC20462430FFF776
:10188000BFFCFFF7FFFC012070BDFFB583B006462B
:101890001D46002002903446002C02D172B600BFD3
:1018A000FEE70498002802D1206C002801D1012015
:1018B00000E00020002802D172B600BFFEE7022D32
:1018C00002D1E06B012801D1012000E000200028B6
:1018D00002D172B600BFFEE700F064F9002802D121
:1018E0000598002801D1012000E00020002802D145
:1018F00072B600BFFEE700BFFFF7B6FCA06BE16B5E
:10190000884201D3022D2BD12A4620460499FEF7A6
:10191000C9FF0746A06C002808D029462046FFF7DB
:101920009EF9002817D0FFF701FD14E0606A002837
:1019300001D1012000E00020002808D120462430F9
:1019400000F02AFA002806D0FFF7F0FC03E0002F91
:1019500001D0FFF7EBFCFFF795FC012007B0F0BDCD
:101960000598002803D1FFF78DFC0020F6E70298C8
:10197000002804D16846FFF7A9FD01200290FFF777
:1019800081FCFFF7EFFDFFF76FFC44210857401C77
:10199000002802D100214420015545210857401C50
:1019A000002802D1002145200155FFF76BFC05A955
:1019B000684600F08FF8002819D12046FFF740F95B
:1019C00000280ED0204610300599FFF709FD20466B
:1019D000FFF701FB00F024FA00288DD1FFF7A6FCE9
:1019E0008AE72046FFF7F7FA00F01AFA84E7204664
:1019F000FFF7F1FA00F014FA0020AFE7FFB583B06B
:101A0000074615461E463C46002C02D172B600BF62
:101A1000FEE70498002802D1206C002801D10120A3
:101A200000E00020002802D172B600BFFEE7022EBF
:101A300002D1E06B012801D1012000E00020002844
:101A400002D172B600BFFEE7FEF7A0FB0190A06BCB
:101A5000E16B884201D3022E34D145200157009119
:101A6000324620460499FEF71DFF0098401C0028CE
:101A700020D1A06C00280AD031462046FFF7EFF8AD
:101A800000281CD0002D1AD00120286017E0606AC1
:101A9000002801D1012000E0002000280FD12046BD
:101AA000243000F079F9002809D0002D07D001205A
:101AB000286004E00098401C41B2452001550120F7
:101AC000029001E0002002900198FEF763FB02986B
:101AD00007B0F0BD70B504460D46002C02D172B6B9
:101AE00000BFFEE7002D02D172B600BFFEE7FFF790
:101AF000BBFB134802682868401C002801D100265F
:101B000019E0104920680968884204D06068904252
:101B100001D801260FE06068101A2968884209D2AE
:101B200028686168511A401A28602046FFF7CEFCE9
:101B3000002600E00126FFF7A5FB304670BD00003F
:101B40003480FF1F4880FF1FFFB585B01746B800DF
:101B5000FFF794FA0646002E0BD05020FFF78EFABE
:101B60000446002C01D0266304E03046FFF79EFBBC
:101B700000E00024002C10D000220F990E986B4634
:101B800013C303923A46089B06990598FEF767FF30
:101B90002046FEF7C3FD012501E00025ED43284660
:101BA00009B0F0BD06490968002901D1012006E00D
:101BB00004490968002901D1022000E00020704793
:101BC0003C80FF1F5880FF1F0149086870470000D4
:101BD0003480FF1FF8B500200090424800680028BC
:101BE00072D141480068451C3F480560002D1CD15A
:101BF0003E4800680068002801D1012000E0002074
:101C0000002802D172B600BFFEE73848076838489E
:101C10000068364908603648076036480068401C4E
:101C200034490860FFF72CF900BF3348006885424B
:101C30003DD300BF2D4800680068002801D1012075
:101C400000E00020002804D00020C0432A4908609A
:101C50002CE026480068C068C4686668B54202D2B5
:101C60002548066022E0201DFFF7B6FAA06A00288A
:101C700003D020461830FFF7AFFA2049E06A096820
:101C8000884202D91D49E06A08601422E16A514382
:101C90001B4A8818211DFFF7DBFA1A49E06A096818
:101CA000C96A8842C6D301200090C3E700BF154827
:101CB0000068C06A1421484311490858012801D915
:101CC0000120009005E0FFE70F480068401C0E4926
:101CD00008600E480068002801D00120009000989C
:101CE000F8BD00005880FF1F3480FF1F2480FF1FB5
:101CF0002880FF1F4880FF1F5080FF1F3880FF1F74
:101D00007090FF1F2080FF1F4080FF1F4480FF1F37
:101D100070B505462C460026002D35D01B480068BE
:101D2000844201D1012000E00020002802D172B6D7
:101D300000BFFEE7606C002802D172B600BFFEE76C
:101D4000606C401E6064216CE06A88421CD0606C4C
:101D5000002819D1201DFFF73FFA206CE062052111
:101D6000E06A081AA0610A49E06A0968884202D953
:101D70000749E06A08601422E16A5143054A88185D
:101D8000211DFFF765FA0126304670BD2080FF1F38
:101D90003880FF1F7090FF1F70B50646F068C4685A
:101DA000002C02D172B600BFFEE720461830FFF7C4
:101DB00013FA15480068002813D1201DFFF70CFA0C
:101DC0001249E06A0968884202D91049E06A08604D
:101DD0001422E16A51430E4A8818211DFFF738FA90
:101DE00004E0214618310B48FFF732FA0A49E06A4D
:101DF0000968C96A884204D9012501200749086099
:101E000000E00025284670BD5880FF1F3880FF1F66
:101E10007090FF1FFC90FF1F2080FF1F4480FF1F5A
:101E200070B50024002632480068002802D172B63E
:101E300000BFFEE7FFF718FA2D480068401E2C4946
:101E400008600846006800284DD12A48006800282C
:101E500049D022E02848C068C46820461830FFF7FF
:101E6000BBF9201DFFF7B8F92449E06A09688842E8
:101E700002D92249E06A08601422E16A5143204AEB
:101E80008818211DFFF7E4F91E49E06A0968C96A4C
:101E9000884202D301201C490860174800680028C6
:101EA00001D1012000E000200028D3D0002C01D077
:101EB000FEF7E6FF15480568002D0DD000BFFFF7BF
:101EC00089FE002802D001200F4908606D1E002DF8
:101ED000F5D100200D4908600B480068002802D0A9
:101EE0000126FFF723FAFFF7CDF9304670BD000059
:101EF0005880FF1F3080FF1FFC90FF1F3880FF1F9E
:101F00007090FF1F2080FF1F4480FF1F4080FF1F35
:101F10001CB50024FEF754FC0B48006800280BD0C9
:101F20000A4802210023FF2205320091019008A1F6
:101F30000948FFF709FE0446002C02D172B600BF23
:101F4000FEE720461CBD00006480FF1F6880FF1F65
:101F5000546D722053766300BD0F0000F0B585B05C
:101F600004460D4616461F4600200390002C02D161
:101F700072B600BFFEE715480068002822D0009521
:101F800001960294062D15DAFFF70CFE022808D1FF
:101F9000002369460D480A9A0068FFF776FC039013
:101FA00010E000231A46694608480068FFF76DFCF8
:101FB000039007E000233A46694604480068FFF7AB
:101FC0001DFD0390039805B0F0BD00006480FF1F65
:101FD00001000000120000001300000000000000DB
:101FE00000B00440009004400090044000A0044071
:101FF00080F00F4000F00F4000F00F4040F00F4025
:10200000202000000080FF1F70000000040100007D
:10201000902000007080FF1F50150000200100007C
:10202000000040010000000000000000000000006F
:10203000000000000000000000000000AAAAAAAAF8
:102040000000000000000000000000000000000090
:102050000000000000000000000000000000000080
:102060000000000000000000000000000000000070
:102070000000000000000000000000000000000060
:102080000000000000000000000000000000000050
:04000005000000C136
:00000001FF
